:04080000D8EF20F01D
:0808080083EF04F00000000082
:100810000000000000000000046ED8CF05F0E0CF1B
:1008200006F00001E9CF0CF0EACF07F0E1CF08F0C5
:10083000E2CF09F0D9CF0AF0DACF0BF0F3CF12F004
:10084000F4CF13F0FACF14F0F5CF15F0F6CF16F081
:10085000F7CF17F000C00EF001C00FF002C010F08B
:1008600003C011F0F2AA38EF04F0F2B41DEF07F064
:100870009DA03EEF04F09EB0DAEF08F09DA244EF99
:1008800004F09EB231EF07F0A0A24AEF04F0A1B24B
:1008900046EF07F0F2A650EF04F0F2B035EF07F0A4
:1008A0009DAA56EF04F09EBA8FEF05F09DA85CEF6D
:1008B00004F09EB861EF05F00EC000F00FC001F02B
:1008C00010C002F011C003F00CC0E9FF07C0EAFF3E
:1008D000078E08C0E1FF09C0E2FF0AC0D9FF0BC0C4
:1008E000DAFF12C0F3FF13C0F4FF14C0FAFF15C003
:1008F000F5FF16C0F6FF17C0F7FF045006C0E0FF73
:1009000005C0D8FF10001A6ED8CF1BF0E0CF1CF046
:100910000001E9CF22F0EACF1DF0E1CF1EF0E2CFD7
:100920001FF0D9CF20F0DACF21F0F3CF28F0F4CFA9
:1009300029F0FACF2AF0F5CF2BF0F6CF2CF0F7CF35
:100940002DF000C024F001C025F002C026F003C045
:1009500027F09DA6AFEF04F09EB627EF0AF024C063
:1009600000F025C001F026C002F027C003F022C02D
:10097000E9FF1DC0EAFF1D8E1EC0E1FF1FC0E2FFA0
:1009800020C0D9FF21C0DAFF28C0F3FF29C0F4FF3F
:100990002AC0FAFF2BC0F5FF2CC0F6FF2DC0F7FFD1
:1009A0001A501CC0E0FF1BC0D8FF1000F36ED89097
:1009B000F734F66EF746010EF716DC0EF626090E32
:1009C000F7220900F5500900F626F550F722F350FA
:1009D000F626000EF7220900F550120028002F001D
:1009E00036003C003F004200470049004C005000E8
:1009F0005400570061006C00720076007A007F009E
:100A000083008600890040464143544F52590040BC
:100A100056455253494F4E0040535441545553008C
:100A200040464F4E0040464F460040414E544D50C8
:100A30000040504D00405250490040415350540036
:100A4000404D535054004042415400405057524989
:100A50004E464F204F4E0040505752494E464F2071
:100A60004F464600404C5052535441004054494D6B
:100A700045004044415445004052544343460040E1
:100A80005344574E004041443100404144320040FD
:100A900042454550000003018051016A7F5D03E239
:100AA0007FC300F00CD0006A080E816F7F370036DC
:100AB0008051005CD8B0006E0136812FF7D700015D
:100AC000120002017251715D18E0036A7251110F38
:100AD000E96E020E0320EA6EEFCF7CF37CC3ADFF1C
:100AE000010E722503017E6F7F6F600E806F000123
:100AF000D2DF00C072F203D002019D9800019E98DF
:100B00005CEF04F004009EAAFDD7ABCF2FF0AECF70
:100B100001F02FA202D0AB98AB889DEF05F0036ADD
:100B20000201D351730FE96E020E0320EA6EEACF81
:100B300080F3E9CF7FF30001E5D780C3EAFF7FC3ED
:100B4000E9FF01C0EFFFD3C27CF3010E0201D32500
:100B500003017E6F7F6F600E806F00019CDF00C01D
:100B6000D3F20201D451D35D02E17CC3D3F29E9A49
:100B700000015CEF04F00A0D555053205049636F9B
:100B800020524553544152542043415553453A2035
:100B9000000052455345545F494E535452554354F7
:100BA000494F4E005744545F46524F4D5F534C459A
:100BB000455000005744545F54494D454F5554002B
:100BC0004D434C525F46524F4D5F534C454550008C
:100BD0004E4F524D414C5F504F5745525F5550005C
:100BE00042524F574E4F55545F5245535441525401
:100BF00000004D434C525F46524F4D5F52554E00E0
:100C0000554E4B4E4F574E20524541534F4E0000CC
:100C1000010E03017E5F0EE3030EEA6E7E0EE96EA7
:100C2000EF5008E0030E006E002EFED700D0040047
:100C3000EF2EF8D70001120093948A9493928A922F
:100C4000010E0301826F825108081AE381C303F089
:100C500080C3E9FF81C3EAFFEF50800B03E193906B
:100C60008A9002D093908A8081C3EAFF80C3E9FF13
:100C7000D890EF3693948A8493948A94822BE3D706
:100C800093928A8293928A9200011200010E006E62
:100C900003017E51016E04E0D8900036012EFCD78E
:100CA0000050FF0A301630C07FF3030E816F7F0EB5
:100CB000806F0001C1DF12000B0E0201096F0400FA
:100CC000C70E03017E6F0001A3DF030E03017E6FD9
:100CD0000001DCDF1200010E006E03017E51016E87
:100CE00004E0D8900036012EFCD70050301230C0FE
:100CF0007FF3030E816F7F0E806F00019DDF120076
:100D00000B0E0201096F0400C70E03017E6F000184
:100D10007FDF010155510001B15D0EE308E1B051E3
:100D20000101545DD8A002D0000106D00001030EDD
:100D300003017E6F0001AADFAF510101555D0FE392
:100D400008E154510001AE5DD8A002D0010107D0E6
:100D50000101030E03017E6F0001BDDF01010001EF
:100D6000120002010CA906D00001CADF02010C9991
:100D700005D004D00001A0DF02010C890001F6EFCC
:100D800006F0882D01D003D08851020830E1895146
:100D900009E0010A09E0030A09E0010A16E0070A6E
:100DA00016E024D089DF22D0ABDF20D003010A5126
:100DB000030805E20001A4DF03010A6B03D0000170
:100DC0007BDF03010A2B000111D0CBD70FD0030129
:100DD0000A51030805E200016FDF03010A6B03D02B
:100DE00000018EDF03010A2B000100D003D08853DD
:100DF00001E162DF23EF07F00101D85302E0D807D9
:100E000008D003017E6B000141DF0101DB5301E0EB
:100E1000DB0700017A530EE10101D95302E0D90743
:100E200009D0010E03017E6F000130DF0101DC53A8
:100E300001E0DC0700012AEF07F0F60ED76E3B0E4B
:100E4000D66E902B9ED703010B5302E00B0705D003
:100E50000001D2D70A0E03010B6FF29400015CEF80
:100E600004F000009E925CEF04F00201065301E0E2
:100E70007D9A062BF29000015CEF04F002010769F5
:100E80000001A19D1F0E926E899A1200B368370E61
:100E9000B26E02010CA101D0DCD00001A183000ED2
:100EA000016EC250C30B0110C26EC28203017C915D
:100EB000C2A27C817CB104D07C91C2A27C81FAD791
:100EC000C2B2FED7C4CF55F10101C3CF54F1F153E3
:100ED00002E1F25304E0F151D8B4F207F107020144
:100EE000085328E00807010155510001B35D23E3D1
:100EF00005E1010154510001B25D1DE30101EC2D3A
:100F000001D002D0000117D00001B8DF1F0E926E91
:100F1000898C020E0101EC6FECC167F084C0EEF128
:100F20000201056B046B030E0101F26FE80EF16F15
:100F300002018FD000010201095328E009070101D5
:100F400055510001B35D23E305E101015451000156
:100F5000B25D1DE30101EC2D01D002D0000117D0DC
:100F600000018CDF1F0E926E898C020E0101EC6F66
:100F7000ECC167F00201056B046B84C0EEF1030E57
:100F80000101F26FE80EF16F020163D0000101016F
:100F9000EC2D61D00001A1B902D001015CD00101AA
:100FA000F15359E1F25357E102010853D8B402D08A
:100FB000010151D00953D8B402D001014CD0E1C194
:100FC000DFF1E0C1DEF1E3C1E1F1E2C1E0F155C1E1
:100FD000E3F154C1E2F10F0E0101E025016E000EB4
:100FE000E121036E0350DF5D11E303E1DE51015C9B
:100FF0000DE20F0EE225016E000EE321036E035099
:10100000E15D04E311E1E051015C0EE355510001A3
:10101000B35D20E3D8B402D0010106D001015451E0
:101020000001B25D17E30101000128DF1F0E926E7F
:10103000898C020E0101EC6FECC167F00201056BB7
:10104000046B84C0EEF1030E0101F26FE80EF16F44
:101050000201000101010000A19200015CEF04F017
:1010600003017D39006E0F0E001600500A0DF3CFFC
:101070007EF37D510F0B7E25016E00011200030EE1
:101080000201076F0001A18BA18D120002010C81EA
:101090000001A1830101EC5102085EE184C0EEF180
:1010A000070EF06FD00EEF6F000E016EC250C30B33
:1010B0000110C26E1F0E926E899CEF5302E1F05335
:1010C00031E0EF51D8B4F007EF07C28203017C9101
:1010D000C2A27C817CB104D07C91C2A27C81FAD76F
:1010E000C2B2FED7C4CF55F10101C3CF54F155515F
:1010F0000001B55D15E305E1010154510001B45D46
:101100000FE31F0E926E898C020E0101EC6FECC191
:1011100067F0030EF26FE80EF16F02010C911ED022
:101120000101CBD7DF6BDE6BE16BE06BE36BE26B56
:10113000556B546B1F0E926E899C0001A0DF010E4F
:101140000101EC6FECC167F0030EF26FE80EF16F76
:101150000201056B046B010102010C9100011200F8
:1011600003017C51060804E37C2B7CC301F007D00B
:101170007C51070804E1010E7C6F7CC301F0000183
:10118000C6EF09F07CC37FF30A0E0301806F0001F4
:1011900082DC013803017D6FF00E7D177CC37FF385
:1011A0000A0E806F000177DC005003017D25016E7F
:1011B00000011200CEA0FED7CE5003010C6FCFCF9E
:1011C0000DF31E530EE10CC37CF3800E0D257D6FD5
:1011D000020E7C5F000E7D5B7DC3CFFF7CC3CEFF24
:1011E0002DD01E51000815E21E51800812E30CC3D9
:1011F0007CF3800E0D257D6F1E517C27000E7D2314
:10120000020E7C5F000E7D5B7DC3CFFF7CC3CEFFF3
:1012100015D01E51800812E20CC37CF3800E0D2500
:101220007D6F800E1E5D7C5F000E7D5B020E7C5F1D
:10123000000E7D5B7DC3CFFF7CC3CEFF02010CABF4
:1012400041D0030117517F0B7C6F7D6F000108DFD8
:1012500001C00EF3030118517F0B7C6F7D6F0001FD
:10126000FFDE01C00FF3030119513F0B7C6F7D6F4F
:101270000001F6DE01C010F303011A51070B7C6F69
:101280007D6F0001EDDE01C011F303011B513F0B27
:101290007C6F7D6F0001E4DE01C012F303011C517D
:1012A0001F0B7C6F7D6F0001DBDE01C013F31DC3DC
:1012B0007CF31DC37DF30001D3DE01C014F30201F2
:1012C0000C9BB6D00CBB03D003010E2B02010CA368
:1012D00001D028D00101EE5302E0EE0705D0EE5315
:1012E00003E10001D3DE01010001813D01D003D003
:1012F000815301E081070201075304E0073D01D05B
:1013000001D007070101EC51020805E10201042B9D
:10131000D8B4052B01010201105301E010070CB5F0
:1013200001D00C850D5301E00D070E5301E00E07AF
:101330000A5301E00A070001A1AF08D002010B53D4
:10134000D8A402D0000102D00B070001020106530D
:1013500007E0F2867D8A066B0001A18903D00201B5
:101360000001A19903010E513C083DE10F2B0E6BCA
:101370000F513C0838E1102B0F6B1051180833E166
:10138000122B106B11C37CF30001EAD601C011F3DC
:10139000030112511D0806E11351020803E1145123
:1013A000030B18E112511E0803E11351020812E069
:1013B00012511F080CE1135104080CE013510608E8
:1013C00009E01351090806E013510B0803E012511C
:1013D000200803E1132B010E126F13510D0803E1D6
:1013E000142B010E136F0EC37CF30001CBDE01C082
:1013F00017F30FC37CF3C6DE01C018F310C37CF3F0
:10140000C1DE01C019F311C37CF3BCDE01C01AF3C5
:1014100012C37CF3B7DE01C01BF313C37CF3B2DE4F
:1014200001C01CF314C37CF3ADDE01C01DF3020147
:101430009E9000015CEF04F0C95087C3C9FFC688C5
:101440009E96C7B0FED7016AC6B8012A12000400F2
:10145000340E006E002EFED700D0C7BA04D00301B0
:10146000206BC7B4208F03012051202B856F85513D
:101470008008D8A06DD08551800803E1C9CF84F3DE
:1014800006D0C69C9EA6FED7C950C688846F8553D9
:1014900003E08551800803E184C31FF359D0852DF3
:1014A00003D084C315F354D08551010851E285510E
:1014B00080084EE01F51D00819E1155106080AE3D3
:1014C0001551152B036A170FE96E030E0320EA6E00
:1014D00084C3EFFF1551060808E1800ECF6ECE6A77
:1014E00002010C8B020E0301166F32D01F51D2087D
:1014F0000EE1155107080AE31551152B036A170F62
:10150000E96E030E0320EA6E84C3EFFF21D01F5162
:10151000D4080EE1155111080AE31551152B036A81
:10152000670FE96E000E0320EA6E84C3EFFF10D050
:101530001F51D6080DE1155116080AE31551152B58
:10154000036A790FE96E000E0320EA6E84C3EFFF91
:1015500085517F08D8B063D01F51D10816E11551CD
:1015600007080EE31551152B036A170FE96E030EDA
:101570000320EA6EEFCF87F300015EDF04D00301A2
:101580008769000159DF4AD003011F51D30816E1D2
:10159000155107080EE31551152B036A170FE96E55
:1015A000030E0320EA6EEFCF87F3000145DF04D07E
:1015B00003018769000140DF31D003011F51D508C5
:1015C00016E1155111080EE31551152B036A670F2B
:1015D000E96E000E0320EA6EEFCF87F300012CDFE7
:1015E00004D003018769000127DF18D003011F51D0
:1015F000D70815E1155116080EE31551152B036A8E
:10160000790FE96E000E0320EA6EEFCF87F3000139
:1016100013DF04D00301876900010EDF03019E96EA
:101620000001AFEF04F00A0D2D2D2D2D2D2D2D2DA8
:101630002D2D2D2D2D2D2D2D2D2D2D2D2D2D0A0D1D
:1016400000000A0D0A0D2D2D2D2D2D2D2D2D2D2DAA
:101650002D2D2D2D2D2D2D2D2D2D2D2D0A0D777769
:10166000772E70696D6F64756C65732E636F6D0096
:101670000A0D555053205049636F204861726477BA
:101680006172652052656C656173653A2056312E32
:10169000303000000A0D556E6B6E6F776E205479F6
:1016A00070653A2025580A0D00000A0D4669726DD2
:1016B000776172652052656C656173653A205625C5
:1016C0007300312E30205072656C696D696E6172E5
:1016D000792030352E30322E32303135202D2064B5
:1016E0006576656C6F7070696E6720636F646520E6
:1016F0003078304300000A0D555053205049636F35
:10170000205254432054696D653A253032753A258C
:101710003032753A253032750A0D00000A0D5550E9
:1017200053205049636F2052544320446174653AFA
:101730002530344C753A253032753A253032750AE9
:101740000D000A0D466163746F727920446566610D
:10175000756C74732053657474696E67207570209E
:1017600050726F6365647572650A0D000A0D4572EB
:101770006173696E6720555053205049636F20692B
:101780006E7465726E616C20454550524F4D00007D
:101790000A0D454550524F4D2045726173656400F6
:1017A0000A0D466163746F7279204C6F7720506F19
:1017B00077657220526573746172742054696D6527
:1017C0002069733A202575205365636F6E6473003A
:1017D0000A0D53657474696E672075702052544306
:1017E00000000A0D466163746F7279205365747549
:1017F0007020596561723A323030300A0D466163AB
:10180000746F7279205365747570204D6F6E7468B3
:101810003A30310A0D466163746F727920536574F2
:10182000757020446F773A30310A0D466163746FEA
:101830007279205365747570204461793A303100B3
:101840000A0D5265616C2054696D6520436C6F63AD
:101850006B20436F7272656374696F6E20466163BB
:10186000746F722073657420746F20302053656329
:101870006F6E647300000A0D4361626C6520506FE7
:101880007765722052657475726E20746573746921
:101890006E672074696D656F75742073657420744C
:1018A0006F2035205365636F6E6473000A0D5772A5
:1018B000697474696E6720466163746F727920532E
:1018C0006574757020206461746120746F205550B8
:1018D00053205049636F20454550524F4D000A0D2B
:1018E00044617461207772697474656E20746F202E
:1018F000555053205049636F20454550524F4D007D
:101900000A0D412F44312056616C75652069733A88
:1019100020254C58205B6D565D000A0D412F443246
:101920002056616C75652069733A20254C58205B00
:101930006D565D000A0D42757A7A6572204F4E0A27
:101940000D000A0D42757A7A6572204F46460A0DDF
:1019500000000A0D42757A7A657220426565700A48
:101960000D000A0D42616420436F6D6D616E643A33
:101970002573200A0D000A0D526573657474696E33
:101980006720555053205049636F0A0D00000A0D1F
:10199000526573657474696E6720555053205049C1
:1019A000636F0A0D00000A0D555053205049636FB4
:1019B0002053797374656D20537461727465640A81
:1019C0000D000A0D5374696C6C20416C69766520BA
:1019D00054696D657220726561636865732030308B
:1019E0002C20555053205049636F204653534420B8
:1019F000686173206265656E20696E6974696174DF
:101A0000656400000A0D5374696C6C20416C697642
:101A1000652054696D657220555053205049636F9D
:101A2000204653534420686173206265656E2063CD
:101A30006F6D706C6574656400000A0D4653534405
:101A400020427574746F6E205072657373656420E4
:101A5000555053205049636F2046535344206861CA
:101A600073206265656E20696E697469617465646E
:101A700000000A0D4653534420427574746F6E2063
:101A80005072657373656420555053205049636FDD
:101A9000204653534420686173206265656E20635D
:101AA0006F6D706C6574656400000A0D55505320AD
:101AB0005049636F2053797374656D20456E74656A
:101AC00072696E67204C5052204D6F6465000A0D9C
:101AD0005175697474696E672066726F6D20465324
:101AE0005344204C505200000A0D4C6F7720426145
:101AF000747465727920555053205049636F2046A5
:101B000053534420686173206265656E20696E6975
:101B100074696174656400000A0D4C6F772042613E
:101B2000747465727920555053205049636F204674
:101B300053534420686173206265656E20636F6D46
:101B4000706C6574656400000A0D5550532050494F
:101B5000636F2053797374656D20456E7465726987
:101B60006E67204C5052204D6F6465000A0D546919
:101B70006D656420465353442055505320504963AB
:101B80006F20686173206265656E20696E69746993
:101B90006174656400000A0D54696D6564204653E4
:101BA000534420555053205049636F2046535344AB
:101BB00020686173206265656E20636F6D706C656F
:101BC000746564000A0D54696D656420465353447E
:101BD00020555053205049636F2053797374656DBD
:101BE00020456E746572696E67204C5052204D6FAF
:101BF000646500000A0D70203A2575206861732025
:101C00006265656E207772697474656E20746F20EA
:101C100074686520555053205049636F20454550E6
:101C2000524F4D0A0D000A0D46616E2053706565D6
:101C3000643A257520686173206265656E2077724D
:101C4000697474656E20746F2074686520555053F4
:101C5000205049636F20454550524F4D0A0D0000FA
:101C60000A0D6E6577205254434346203A2575206D
:101C7000686173206265656E207772697474656E41
:101C800020746F2074686520555053205049636F4D
:101C900020454550524F4D0A0D000A0D5550532016
:101CA0005049636F20466163746F72792053657485
:101CB0007570205265717565737465640A0D000056
:101CC0000A0D555053205049636F20526573657457
:101CD000205265717565737465640A0D00000A0D04
:101CE000555053205049636F20426F6F746C6F6181
:101CF000646572205265717565737465640A0D00C0
:101D00000A0D555053205049636F205254432068A8
:101D10006173206265656E2075706461746564200E
:101D200066726F6D20746865205250690000BD6A4C
:101D300094948B94120003016851D8B471D0006E52
:101D40006C51D8B46DD0002604E3810E002668E201
:101D500004D07F0E005E64E363E069C370F36D51ED
:101D6000701B698F6D8F6B516F03F4CF72F36A51E3
:101D70006E03F4CF03F0F3CF71F36F03F3507227C8
:101D8000F4507123000E03226B516E03F35072273F
:101D9000F4507123000E026A0322022269516F037C
:101DA000F3507127F4500322000E022269516E0392
:101DB000F3500326F4500222000E016A01226B51F7
:101DC0006D03F3507127F4500322000E022201220A
:101DD0006A516D03F3500326F4500222000E0122D3
:101DE00069516D03F3500226F4500122002A01BE0E
:101DF00005D071370336023601360006000E71AF8A
:101E00000AD0032A02220122015005E1025003E117
:101E1000035001E1002A70BF018E70AF019E04D013
:101E2000006A016A026A036A000112000301545148
:101E3000D8B4A5D0606F5851D8B4A1D0605F05E385
:101E40007F0E6027D8B09BD006D0810E605FD8A0EF
:101E500096D0D8B494D060C300F0016A026A036AD5
:101E60005F6B55C35EF35E8F56C35DF357C35CF380
:101E7000190E606F5B515C5F0DE2010E5D5F0AE25F
:101E80005E5F08E25F5F06E25F2B5E2B5D2B5B51BE
:101E90005C2728D05A515D5F12E2010E5E5F0FE2AF
:101EA0005F5F0DE25F2B5E2B5A515D275B515C2714
:101EB00019E35D2B17E15E2B15E15F2B13D0595110
:101EC00080095E5F0EE2010E5F5F0BE25F2B5951EE
:101ED00080095E275A515D27E9E35E2BE7E15F2B1E
:101EE000E5D70380602F01D00BD0D8905C375D37E9
:101EF0005E375F37D8900336023601366137BAD77E
:101F000061A106D0D890013202320332613302D08F
:101F1000000635E061BF1ED0D8905C375D375E3774
:101F20005F375B515C5F07E2010E5D5F04E25E5F5D
:101F300002E25F5F1AE35A515D5F05E2010E5E5FE8
:101F400002E25F5F12E3595180095E5F03E2010E16
:101F50005F5F0BE3032A09E1022A07E1012A05E199
:101F6000002A0DE001320232033255C360F35951A9
:101F7000601B60AF02D0018E06D0019E04D0006AC3
:101F8000016A026A036A0001120069C370F3030167
:101F90006D51701B70AF05D0D894D89069BFD880B0
:101FA0002FD069C370F36CC371F36851715F06E0A1
:101FB00070AF26D0D850010AD86E22D06DC371F30D
:101FC0006951715F06E070AF1BD0D850010AD86E1E
:101FD00017D06EC371F36A51715F06E070AF10D015
:101FE000D850010AD86E0CD06FC371F36B51715F7A
:101FF00006E070AF05D0D850010AD86E01D0D89055
:10200000000112008E0E006E03016851005E69C36C
:1020100002F06AC301F0028E005209E0D890025229
:1020200002E1015204E002320132002EF7D769AF1B
:1020300005D0011E021E012AD8B4022A0001120096
:102040008E0E006E6DC301F06CC302F0036A015284
:1020500009E102C001F0026A080E005E015202E1CD
:10206000006A08D0D89001BE04D0023601360006BE
:10207000F9D7019E1200800ED8A202D00301711B75
:102080000301766B776B6DC375F37151751B6C51E2
:10209000D8B4DFD0746F006E7051D8B4E3D0745FE1
:1020A000D8B483D03EE371C37AF37A8F72C379F3E5
:1020B00073C378F3776BD8907A3379337833773387
:1020C000742FF8D775AF03D07681E0D076917491F4
:1020D0007689030EEA6E6F0EE96EEBD0769975BFC6
:1020E0000AD074A113D07A33793378337733002A46
:1020F000D8B4C7D00BD07ABF0CD0D8907737783708
:1021000079377A370006D8B4BCD0F5D7768D6DD044
:10211000769D6DC375F36DAF02D07A8FABD07A9F89
:10212000A9D070C374F370C300F06C51745F6DC3B9
:102130007AF37A8F6EC379F36FC378F3776BD890A5
:102140007A33793378337733742FF8D775AF03D078
:1021500076839CD076937491768B030EEA6E730E21
:10216000E96EA7D0769B75BF0AD074A113D07A33DD
:10217000793378337733002AD8B483D00BD07ABF41
:102180000CD0D8907737783779377A370006D8B4BB
:1021900078D0F5D7768F29D0769F71C375F371AF5C
:1021A00002D07A8F67D07A9F65D071C37AF37A8F25
:1021B00072C379F373C378F375AF04D07A9F7685D1
:1021C00065D07695776B7491030EEA6E6F0EE96EAB
:1021D00070D075BF1CD06DC375F374A106D07A336F
:1021E000793378337733002A4CE077AF0BD0782BF4
:1021F00009E1792B07E17A2B05E17A3379337833DA
:10220000002A3FE076BD84D776BFC6D71CD0800EAB
:102210007A1B7AAF04D03AD071C375F30AD06DC37C
:1022200075F37A5306E1795304E1785302E1006AC9
:1022300021D07ABF08D0D8907737783779377A3776
:10224000002EF7D71ED075AF02D07A8F13D07A9FA9
:1022500011D070C300F071C37AF372C379F373C302
:1022600078F308D06CC300F06DC37AF36EC379F3D2
:102270006FC378F37AC301F079C302F078C303F037
:1022800034D0006A016A026A036A2FD0776B781F24
:10229000791F7A1F771F772B05E1782B03E1792BC4
:1022A00001E17A2B76B112D776B354D776B589D7B8
:1022B000B3D7EF50782705E3792B03E17A2BD8B415
:1022C0007481ED52EF50792703E37A2BD8B47481EF
:1022D000ED52EF50EFBE01D0800A7A27D8B074815A
:1022E00076B9FCD676BB3ED774D700011200030145
:1022F00067915BC360F35AC35FF359C35EF358C37E
:102300005DF35BC36BF35AC36AF359C369F358C3F4
:1023100068F36F6B6E6B6D6B6C6B000136DE06E302
:10232000030167815E51800A5E6F000160C36BF339
:102330005FC36AF35EC369F35DC368F303016F6B48
:102340006E6B6D6B8E0E6C6F00011FDE01E217E18C
:1023500060C36BF35FC36AF35EC369F35DC368F385
:1023600051DE02C06DF301C06CF36ADE03C064F39A
:1023700002C063F301C062F300C061F3C7D060C361
:102380006BF35FC36AF35EC369F35DC368F3800EEA
:1023900003016F6F960E6E6F180E6D6F960E6C6F59
:1023A0000001F3DDD8A0AAD060C36BF35FC36AF36A
:1023B0005EC369F35DC368F303016F6B6E6B6D6B96
:1023C000700E6C6F0001B7DC03C06BF302C06AF3E0
:1023D00001C069F300C068F315DE02C066F301C0F6
:1023E00065F360C36BF35FC36AF35EC369F35DC3F8
:1023F00068F303016F6B6E6B6D6B700E6C6F000199
:102400009ADC03C06BF302C06AF301C069F300C039
:1024100068F366C36DF365C36CF312DED8826BC3D9
:102420006FF36AC36EF369C36DF368C36CF303C0E3
:1024300073F302C072F301C071F300C070F31BDECE
:1024400003016B6B6A6B696B8E0E686F03C06FF371
:1024500002C06EF301C06DF300C06CF300016BDCD1
:1024600003C060F302C05FF301C05EF300C05DF320
:1024700066C36DF365C36CF3E3DD03016B6B6A6BDD
:10248000696B8E0E686F03C06FF302C06EF301C0FC
:102490006DF300C06CF300014EDC03C064F302C0B6
:1024A00063F301C062F300C061F360C36BF35FC309
:1024B0006AF35EC369F35DC368F3A4DD02C06DF324
:1024C00001C06CF3BDDDD89264C36FF363C36EF3D8
:1024D00062C36DF361C36CF303C073F302C072F3A4
:1024E00001C071F300C070F3C6DD03C064F302C025
:1024F00063F301C062F300C061F308D060C364F30A
:102500005FC363F35EC362F35DC361F360C36BF3E8
:102510005FC36AF35EC369F35DC368F373DD02C032
:102520006DF301C06CF38CDDD88260C36FF35FC3C1
:102530006EF35EC36DF35DC36CF303C073F302C04F
:1025400072F301C071F300C070F395DD03C060F356
:1025500002C05FF301C05EF300C05DF3030167A139
:1025600003D06251800A626F60C36BF35FC36AF38A
:102570005EC369F35DC368F36F6B6E6B6D6B6C6B01
:10258000000103DD3AE0030167A11BD05C5319E1B0
:10259000D88264C36FF363C36EF362C36DF361C328
:1025A0006CF3736B726B716B7F0E706F000163DD88
:1025B00003C064F302C063F301C062F300C061F3BF
:1025C000030167B11BD05C2D19D0D89264C36FF39F
:1025D00063C36EF362C36DF361C36CF3736B726BB1
:1025E000716B7F0E706F000146DD03C064F302C0A3
:1025F00063F301C062F300C061F303015BC36BF3DB
:102600005AC36AF359C369F358C368F36F6B6E6BAF
:102610006D6B6C6B0001B9DC06E10301646B636BED
:10262000626B616B000161C300F062C301F063C3C0
:1026300002F064C303F029EF13F057C35BF356C3F2
:102640005AF355C359F354C358F303015C6B0001AB
:102650004ED612004DC36BF34CC36AF34BC369F300
:102660004AC368F39A0E03016F6F990E6E6F190ECD
:102670006D6F7E0E6C6F00019BEC0EF003C053F388
:1026800002C052F301C051F300C050F303C06BF31A
:1026900002C06AF301C069F300C068F303016F6B05
:1026A000C00E6E6F7F0E6D6F880E6C6F00019BEC1D
:1026B0000EF003C053F302C052F301C051F300C047
:1026C00050F303C057F302C056F301C055F300C0E6
:1026D00054F3330E03015B6F5A6F530E596F800E24
:1026E000586F000116EC0FF003C053F302C052F311
:1026F00001C051F300C050F303C057F302C056F3BA
:1027000001C055F300C054F398DF03C06BF302C05F
:102710006AF301C069F300C068F374DC02C04FF3D0
:1027200001C04EF303014EC301F04FC302F000019C
:1027300012004DC36BF34CC36AF34BC369F34AC336
:1027400068F3990E03016F6F6E6F190E6D6F7E0E39
:102750006C6F00019BEC0EF003C053F302C052F308
:1027600001C051F300C050F303C06BF302C06AF321
:1027700001C069F300C068F303016F6BC00E6E6F98
:102780007F0E6D6F880E6C6F00019BEC0EF003C026
:1027900053F302C052F301C051F300C050F303C021
:1027A00057F302C056F301C055F300C054F3330E83
:1027B00003015B6F5A6F530E596F800E586F000103
:1027C00016EC0FF003C053F302C052F301C051F3F3
:1027D00000C050F303C057F302C056F301C055F3D5
:1027E00000C054F32ADF03C06BF302C06AF301C0D8
:1027F00069F300C068F306DC02C04FF301C04EF37A
:1028000003014EC301F04FC302F000011200D8B221
:1028100004D0030EEA6E600EE96E006A016A026A75
:10282000036A0301606B616B626B636B5F515E11E6
:102830005D115C112CE0200E646FD8905837593729
:102840005A375B3760376137623763375F51635D93
:1028500008E15E51625D05E15D51615D02E15C513F
:10286000605D0FE35C51605F5D51D8A05D3D615FCD
:102870005E51D8A05E3D625F5F51D8A05F3D635F4F
:10288000D8800036013602360336642FD6D760C3AF
:10289000EFFF61C3ECFF62C3ECFF63C3ECFF000119
:1028A000120051C35BF350C35AF34FC359F34EC3E5
:1028B00058F34DC35FF34CC35EF34BC35DF34AC3A0
:1028C0005CF3A5DF025004E1015002E100502EE16B
:1028D00003C05BF302C05AF301C059F300C058F3C0
:1028E00003015F6B5E6B5D6B040E5C6F00018FDF3D
:1028F000025004E1015002E100501BE103C05BF310
:1029000002C05AF301C059F300C058F303015F6BD2
:102910005E6B5D6B040E5C6F000179DF025004E1B9
:10292000015002E1005008E1006A06D0040ECA6EB0
:1029300005D0050ECA6E02D0060ECA6E000600C093
:10294000CBFF59EF23F003015C6B5D6B010E5E6FF3
:10295000DA6AD96A030E616F540E606F030EEA6E75
:10296000580EE96E61C3E2FF60C3E1FF5EC35FF32F
:10297000D890E550EE02F3505C23F4505D235F2FB6
:10298000F7D75CC3DEFF5DC35CF35D6BD8B05D2B36
:10299000602BD8B4612B5E2B5E510508DFE100018E
:1029A0001200CBCF4CF303014D6B4C2BD8B44D2B05
:1029B000D8904C374D374C374D37576B566B4DC30E
:1029C00055F34CC354F35B6B5A6B4BC359F34AC377
:1029D00058F30001B8DF03C05BF302C05AF301C033
:1029E00059F300C058F303015F6B5E6B030E5D6F1C
:1029F000E80E5C6F00010BDF00C002F00132003214
:102A00000132003200C0BEFF023602360236023604
:102A1000CF0EBD16300E0214BD1261EF23F003017C
:102A2000569102017251715D03E103015681020169
:102A3000036A7151110FE96E020E0320EA6E55C34D
:102A4000EFFF010E71250301596F196AF2BE198E4D
:102A5000F29E7F6F600E806F00014BEC05F019BE97
:102A6000F28E00C057F3020172510301575DD8A4E2
:102A700002D00001F8D757C371F256A101D09D884A
:102A8000000112000A0E0301556F0001C8DF0D0E90
:102A90000301556F0001C3DF12000900F5520CE07D
:102AA000F6CF4DF3F7CF4EF3F5CF55F3B8DF4DC367
:102AB000F6FF4EC3F7FFF1D7120051C301F050C328
:102AC00000F00066012A0900F5CFEEFF002EFBD7CB
:102AD000012EF9D7F86A7CEF15F0F86A070EF76E49
:102AE000FE0EF66E030EEA6E4D0EE96E0301516B9B
:102AF000010E506F0001E1D74DC34FF303014FC3E7
:102B000001F0000112000900F6CF4FF3F7CF50F3A8
:102B1000F5CF55F384DF4FC3F6FF50C3F7FF030132
:102B20004E2F01D002D00001EED7000112000301A8
:102B30004FBF11D00F0E006E4E3900160A0E005C0A
:102B400003E2300E002602D04F51002600C055F39C
:102B5000000165DF03010F0E4E170A0E4E5D02E203
:102B6000300E02D04F9F4F514E274EC355F30001F8
:102B700056DF1200260EF66E160EF76E8EDF12006E
:102B8000420EF66E160EF76E88DFA7DF0150500A70
:102B900001E006D0700EF66E160EF76E7EDF1FD0C7
:102BA0009CDF01C04DF3940EF66E160EF76E100EFC
:102BB00003014E6F0001A7DF4DC34EF3370E030133
:102BC0004F6F0001B4DF0A0E0301556F000127DFCC
:102BD0000D0E0301556F000122DFCCDF10D0AA0ECD
:102BE000F66E160EF76E150E03014E6F00018BDFA9
:102BF000C20EF66E160EF76E50DFBCDF43DF12001A
:102C0000030EEA6E4F0EE96EEF5011E0140E016EE6
:102C1000BF0E006E0400002EFDD7012EF9D7BF0EA7
:102C2000006E002EFED700000400EF2EEFD712003A
:102C30000150196AF2BE198EF29E4DC37FF3640EE5
:102C40000301806F00014BEC05F019BEF28E00C04D
:102C50004DF30150300E08E103014EA30FD04EB7E3
:102C60000DD04EB9200E04D003014E974E994E81DF
:102C7000012601C055F30001D2DE0301196AF2BE3C
:102C8000198EF29E4DC37FF30A0E806F00014BEC4C
:102C900005F019BEF28E00C04DF30150300E08E170
:102CA00003014EB70AD04EA108D04EB9200E000144
:102CB000012601C055F3B3DE0301300E4D274DC38D
:102CC00055F30001ACDE12000301146B010E126F0C
:102CD00012C311F311C313F3106B10C30EF3196A6F
:102CE000F2BE198EF29E0EC37CF30001C2EC08F016
:102CF00019BEF28E01C017F3196AF2BE198EF29E48
:102D00000FC37CF3C2EC08F019BEF28E01C018F3B9
:102D1000196AF2BE198EF29E10C37CF3C2EC08F061
:102D200019BEF28E01C019F3196AF2BE198EF29E15
:102D300011C37CF3C2EC08F019BEF28E01C01AF385
:102D4000196AF2BE198EF29E12C37CF3C2EC08F02F
:102D500019BEF28E01C01BF3196AF2BE198EF29EE3
:102D600013C37CF3C2EC08F019BEF28E01C01CF351
:102D7000196AF2BE198EF29E14C37CF3C2EC08F0FD
:102D800019BEF28E01C01DF3120003014E6B4D6B94
:102D90004E6B4D6B4E532CE14D512E0829E3036AC7
:102DA0004D51390FE96E000E0320EA6EEFCF4FF35D
:102DB000A6B2FED7A694F250006EF29E4DC3A9FFB4
:102DC0004FC3A8FFA69CA69EA6840F01550EA76E12
:102DD000AA0EA76EA6820050F212050E03014F6FD5
:102DE00000010EDF040003014D2BD8B44E2BD2D7C7
:102DF0000001120047DEAA0E396EC2DE420EF66EE8
:102E0000170EF76E4ADE6C0EF66E170EF76E45DE85
:102E100003014C6B4B6B4C5100081FE3A6B2FED76D
:102E2000A694F250006EF29E4BC3A9FFA868A69C20
:102E3000A69EA6840F01550EA76EAA0EA76EA682A7
:102E40000050F21204000A0E03014F6F0001D8DE99
:102E500003014B2BD8B44C2BDED7900EF66E170E19
:102E6000F76E00011ADE050E3E6E3EC083F0A00E26
:102E7000F66E170EF76E250E03014E6F000143DE4E
:102E80003EC04DF31B0E03014E6F0001D1DEC70E95
:102E9000F66E170EF76E080E03014E6F000133DE5B
:102EA000D00EF66E170EF76EF8DD0EDFE20EF66E40
:102EB000170EF76EF2DD400EF66E180EF76EEDDDB2
:102EC00003011E6B1EC344F0760EF66E180EF76EED
:102ED0000001E3DD050E3C6E3CC084F00400AC0E46
:102EE000F66E180EF76ED9DD50DFDE0EF66E180E98
:102EF000F76ED3DDC7DD12007DDFF29A03014A6B66
:102F00004A510A08D8A088D0020E4B6FFA0E4F6FB4
:102F1000000176DE03014B2FF9D70400196AF2BED7
:102F2000198EF29E050E7E6F000146EC06F019BE6A
:102F3000F28E196AF2BE198EF29E060E03017E6FA2
:102F4000000146EC06F019BEF28E196AF2BE198E27
:102F5000F29E03017E6B000146EC06F019BEF28E74
:102F6000196AF2BE198EF29E010E03017E6F0001F6
:102F700046EC06F019BEF28E196AF2BE198EF29E68
:102F8000070E03017E6F000146EC06F019BEF28EBB
:102F9000FA0E03014F6F000133DE0400196AF2BE1E
:102FA000198EF29E050E03017E6F00016BEC06F098
:102FB00019BEF28E196AF2BE198EF29E060E030138
:102FC0007E6F00016BEC06F019BEF28E196AF2BE3C
:102FD000198EF29E03017E6B00016BEC06F019BEA8
:102FE000F28E196AF2BE198EF29E010E03017E6FF7
:102FF00000016BEC06F019BEF28E196AF2BE198E52
:10300000F29E070E03017E6F00016BEC06F019BE05
:10301000F28E03014A2B74D7F28A320E4F6F0001F1
:10302000EFDD760EF66E190EF76E37DD320E030108
:103030004F6F0001E5DDFF0012000201D451D35DA6
:103040000EE103014B2B4B510A08D8B002D002010C
:1030500006D0020E4F6F0001D3DDEFD70201036AE5
:10306000D451730FE96E020E0320EA6EEFCF4AF3DC
:10307000010ED42503014D6F196AF2BE198EF29E1E
:103080007F6F600E806F00014BEC05F019BEF28E71
:1030900000C0D4F203014AC301F0000112000C0E7B
:1030A000BD6E1200FCDF320E03014F6F0001A8DD80
:1030B00097EC0EF012000400196AF2BE198EF29E0F
:1030C000310E03017E6F000108EC06F019BEF28E8E
:1030D000120003015B695A6955C357F354C356F391
:1030E000596B586B5A5302E15B533FE05A51D8B4C5
:1030F0005B075A075751260809E2FF0A03E15651B8
:103100000F0804E2FF0E016E026E33D05751020821
:103110000CE2FF0A03E15651E70807E2E80E565FAA
:10312000030E575B100E59271FD0575303E156511A
:10313000630807E2640E565F000E575B010E5927C5
:1031400013D0575303E15651090809E20A0E565F9E
:10315000000E575B100E5827000E592305D056510C
:1031600058275751592301D0BDD758C301F059C32F
:1031700002F000011200A193240E016EC250C30B95
:103180000110C26E98DFC282C2B2FED7C4CF4BF329
:103190000301C3CF4AF30001A1B305D04BC300F232
:1031A0004AC3FFF117D0A193240E016EC250C30B86
:1031B0000110C26E80DFC282C2B2FED7C4CF4BF311
:1031C0000301C3CF4AF30001A1B304D04BC300F203
:1031D0004AC3FFF10301576B566B00C255F3FFC1A1
:1031E00054F35B6B020E5A6F8B0E596F0B0E586FB8
:1031F0000001A3EC14F003C057F302C056F301C062
:1032000055F300C054F3D89203C05BF302C05AF3E5
:1032100001C059F300C058F303015F6B5E6B270ECA
:103220005D6F100E5C6F000107EC14F003C053F3E8
:1032300002C052F301C051F300C050F30301576BB9
:10324000566B0C0E556F9A0E546F53C35BF352C3FB
:103250005AF351C359F350C358F30001A3EC14F0CF
:1032600003C057F302C056F301C055F300C054F336
:10327000D89203C05BF302C05AF301C059F300C0F7
:1032800058F303015F6B5E6B270E5D6F100E5C6F72
:10329000000107EC14F003C04FF302C04EF301C06D
:1032A0004DF300C04CF34DC355F34CC354F311DF41
:1032B00002C06DF001C06CF01200A1932C0E016EE3
:1032C000C250C30B0110C26EF6DEC282C2B2FED77C
:1032D000C4CF4BF30301C3CF4AF30001A1B305D020
:1032E0004BC302F24AC301F217D0A1932C0E016E18
:1032F000C250C30B0110C26EDEDEC282C2B2FED764
:10330000C4CF4BF30301C3CF4AF30001A1B304D0F0
:103310004BC302F24AC301F20301576B566B02C260
:1033200055F301C254F35B6B020E5A6F8B0E596F4B
:103330000B0E586F0001A3EC14F003C057F302C04A
:1033400056F301C055F300C054F3D89203C05BF3A9
:1033500002C05AF301C059F300C058F303015F6B78
:103360005E6B270E5D6F100E5C6F000107EC14F0B2
:1033700003C053F302C052F301C051F300C050F335
:103380000301576B566B0C0E556F9A0E546F53C357
:103390005BF352C35AF351C359F350C358F30001BE
:1033A000A3EC14F003C057F302C056F301C055F369
:1033B00000C054F3D89203C05BF302C05AF301C0BB
:1033C00059F300C058F303015F6B5E6B270E5D6F0E
:1033D000100E5C6F000107EC14F003C04FF302C045
:1033E0004EF301C04DF300C04CF34DC355F34CC335
:1033F00054F36FDE02C06FF001C06EF01200760E63
:10340000F66E0B0EF76E4DEC15F003014A51000AF3
:1034100000010DE0030A12E0040A17E00C0A1CE0A8
:10342000070A21E0020A26E0010A2BE031D0920EC1
:10343000F66E0B0EF76E4DEC15F030D0A40EF66E56
:103440000B0EF76E4DEC15F029D0B40EF66E0B0E88
:10345000F76E4DEC15F022D0C00EF66E0B0EF76E27
:103460004DEC15F01BD0D00EF66E0B0EF76E4DEC3A
:1034700015F014D0E00EF66E0B0EF76E4DEC15F055
:103480000DD0F20EF66E0B0EF76E4DEC15F006D069
:10349000000EF66E0C0EF76E4DEC15F00A0E0301E1
:1034A000556F00010FEC15F00D0E0301556F000173
:1034B0000FEC15F07DEF27F003014A6B4A512E08FF
:1034C0000BE3036A4A51D50FE96E020E0320EA6E40
:1034D000EF6A04004A2BF2D702010C970301056B37
:1034E00000011200D89003010935036A580FE96EF4
:1034F000010E0320EA6E55C1ECFFED5254C1EFFFFF
:1035000009513E0802E2096B01D0092B0101516B00
:10351000506B4F6B4E6B03014A6B4A513F0816E3E9
:10352000D8904A35036A580FE96E010E0320EA6EFF
:10353000ECCF03F0ED52EF5001014E2703504F2323
:10354000000E5023512303014A2BE7D701015131CB
:10355000036E5031026E4F31016E4E31006E0332F8
:1035600002320132003203320232013200320332BF
:1035700002320132003203320232013200320332AF
:1035800002320132003200C052F101C053F153C186
:103590006DF352C16CF3000120EC10F003C06BF32B
:1035A00002C06AF301C069F300C068F3A0C06FF302
:1035B0009FC06EF39EC06DF39DC06CF39BEC0EF04C
:1035C00003C06BF302C06AF301C069F300C068F383
:1035D00002EC10F002C04CF301C04BF34CC355F3A6
:1035E0004BC354F376DD02C06BF001C06AF0A4EF68
:1035F0001CF0A193040E016EC250C30B0110C26EE9
:103600005ADDC282C2B2FED7C4CF4CF30301C3CF8E
:103610004BF30001A1B305D04CC3CDF04BC3CCF0AC
:1036200015D0A193040E016EC250C30B0110C26EDF
:1036300042DDC282C2B2FED7C4CF4CF30301C3CF76
:103640004BF34CC3CDF04BC3CCF00001D890030139
:103650000835036ACE0FE96E000E0320EA6ECDC076
:10366000ECFFED52CCC0EFFF08513E0802E2086BC0
:1036700001D0082B0001C96BC86BC76BC66B030177
:103680004A6B4A513F0816E3D8904A35036ACE0F79
:10369000E96E000E0320EA6EECCF03F0ED52EF501E
:1036A0000001C6270350C723000EC823C923030106
:1036B0004A2BE7D70001C931036EC831026EC7310A
:1036C000016EC631006E0332023201320032033223
:1036D000023201320032033202320132003203324E
:1036E000023201320032033202320132003200C0B3
:1036F000CAF001C0CBF0CBC06DF3CAC06CF320ECB4
:1037000010F003C06BF302C06AF301C069F300C09C
:1037100068F39CC06FF39BC06EF39AC06DF399C0C1
:103720006CF39BEC0EF003C06BF302C06AF301C0B4
:1037300069F300C068F302EC10F002C04EF301C060
:103740004DF34EC355F34DC354F3C3DC02C069F0CF
:1037500001C068F0A5EF1CF0A1930C0E016EC250E1
:10376000C30B0110C26EA7DCC282C2B2FED7C4CFA7
:103770004FF30301C3CF4EF30001A1B305D04FC3F4
:10378000F4F14EC3F3F114D0A1930C0E016EC250AC
:10379000C30B0110C26E8FDCC282C2B2FED7C4CF8F
:1037A0004FF30301C3CF4EF34FC3F4F14EC3F3F114
:1037B00000010BEF1CF0A193080E016EC250C30B69
:1037C0000110C26E78DCC282C2B2FED7C4CF4FF302
:1037D0000301C3CF4EF30001A1B305D04FC3F6F1EF
:1037E0004EC3F5F114D0A193080E016EC250C30B65
:1037F0000110C26E60DCC282C2B2FED7C4CF4FF3EA
:103800000301C3CF4EF34FC3F6F14EC3F5F10001F0
:103810000CEF1CF0A1D7CFD7020103070101F5512E
:10382000FB27F651FC23F351F727F451F82302014B
:103830000353D8A485D00101FC31FE6FFB31FD6F2D
:10384000FE33FD33FE33FD33FE33FD33FE33FD33F4
:10385000FE33FD33030EFE17F831FA6FF731F96FBF
:10386000FA33F933FA33F933FA33F933FA33F933F4
:10387000FA33F933030EFA17F8C16DF3F7C16CF39D
:10388000000120EC10F003C06BF302C06AF301C02A
:1038900069F300C068F30D0E03016F6F680E6E6F61
:1038A000530E6D6F760E6C6F00019BEC0EF003C033
:1038B00051F302C050F301C04FF300C04EF3D88261
:1038C00003C06FF302C06EF301C06DF300C06CF370
:1038D000CD0E0301736FCC0E726F4C0E716F7D0EA7
:1038E000706F00013BEC10F003C051F302C050F3C5
:1038F00001C04FF300C04EF303C057F302C056F3AC
:1039000001C055F300C054F3770E03015B6FBE0E88
:103910005A6F1F0E596F790E586F000116EC0FF099
:1039200003C04DF302C04CF301C04BF300C04AF397
:103930000101FC6BFB6BF86BF76B400E0201036F30
:103940000001A6EF1CF0CED554D664D71200A1A971
:1039500046D003014A51FC0F43E2040F0001F2EF8D
:103960001CF0196AF2BE198EF29E010E03017E6FE1
:1039700000016BEC06F019BEF28E7A81030130D0A3
:10398000196AF2BE198EF29E010E03017E6F0001CC
:103990006BEC06F019BEF28E7A83030121D0196A0E
:1039A000F2BE198EF29E010E03017E6F00016BECD8
:1039B00006F019BEF28E7A85030112D0196AF2BEA2
:1039C000198EF29E010E03017E6F00016BEC06F072
:1039D00019BEF28E7A87030103D002D000010301E1
:1039E00000011200E824F76AF736FF0FF66E390E71
:1039F000F7220A00F550FA6E0800F550F96E6239A8
:103A000080399E39BC3902010F51070806E1030EC7
:103A100003014A6F00019BDF020100017DEF28F0E6
:103A200003014B6B4A6B4B6B4A6B4B531BE14A5187
:103A30002E0818E3036A4A51390FE96E000E03207D
:103A4000EA6EF2CF4EF3F29E4AC3A9FFA69CA69E51
:103A5000A680A8504EBFF28EEF6E04004A2BD8B459
:103A60004B2BE3D7000189EF28F0CB51A35D09E38D
:103A700003E1A251CA5D05E2010E03014A6F000194
:103A800066DFD9EF28F0020107531BE10001A1BB5B
:103A900002D0020116D0A19BB10E0201086F0001F5
:103AA000AF510101555D0CE308E154510001AE5DD9
:103AB000D8A002D0010104D001011F0E926E898AA4
:103AC0000201000112000101D85312E1DB5310E1A1
:103AD0004AC3D8F14BC3DBF1196AF2BE198EF29ECC
:103AE00003017E6B00016BEC06F019BEF28E010142
:103AF000000112000101D95318E1DC5316E14AC359
:103B0000D9F14BC3DCF1196AF2BE198EF29E010E97
:103B100003017E6F00016BEC06F019BEF28E875137
:103B2000020802E14FEC18F00101000112007A5383
:103B30004DE1CB51A55D0BE303E1CA51A45D07E361
:103B4000010E03014A6F020E4B6F0001D3DFA55136
:103B5000CB5D12E303E1CA51A45D0EE2CB51A75D38
:103B60000BE303E1CA51A65D07E3010E03014A6FAF
:103B7000050E4B6F0001BEDFA751CB5D12E303E1E1
:103B8000CA51A65D0EE2CB51A95D0BE303E1CA5118
:103B9000A85D07E3010E03014A6F0A0E4B6F000197
:103BA000A9DFA951CB5D12E303E1CA51A85D0EE282
:103BB000CB51AB5D0BE303E1CA51AA5D07E3010EF4
:103BC00003014A6F140E4B6F000194DF6EEF2DF06E
:103BD00003014A6B4A511F080AE3036A4A51210F45
:103BE000E96E030E0320EA6EEF6A4A2BF3D7000159
:103BF000FEEF1FF003016A516C03F3CF01F0F4CF25
:103C000000F06D03F35000266B516C03F35000205D
:103C1000026E000183EF1EF06DC303F003016CC35D
:103C2000E9FF6DC3EAFFEF5205E16AC301F06BC320
:103C300002F05DD06BC303F06AC3E9FF6BC3EAFF18
:103C4000EF5252E06BC36FF36AC36EF36DC371F34F
:103C50006CC370F371C303F070C3E9FF71C3EAFF73
:103C6000EF5216E06EC3E9FF6FC3EAFFEFCF72F3C6
:103C700071C303F070C3E9FF71C3EAFFEF50725DD7
:103C800007E16E2BD8B46F2B702BD8B4712BE2D711
:103C900071C303F070C3E9FF03C0EAFFEF5205E10F
:103CA0006AC301F06BC302F022D06A2BD8B46B2B2D
:103CB0006BC303F06AC3E9FF6BC3EAFFEF5213E083
:103CC0006AC3E9FF6BC3EAFFEFCF72F36DC303F082
:103CD0006CC3E9FF6DC3EAFFEF50725D04E06A2B2D
:103CE000D8B46B2BE5D7A6D7000E016E026E00018B
:103CF000A3EF1EF003016B6B41C36AF3010E6D6FFE
:103D00006C6B000177D702C06BF3030101C06AF34B
:103D1000030EEA6E4A0EE96E02C0F7FF0150000181
:103D2000D6EC04F00A000900F550EE6E0009FBE144
:103D3000020E03016B6FD50E6A6F030E6D6F4A0E94
:103D40006C6F000169D702C06BF301C06AF3030115
:103D50006A5302E16B5304E0010E016E03D002D0FE
:103D6000000E016E000112001FEF20F0000EF66E33
:103D7000190EF76E110E03014E6F000183EC15F062
:103D80006DC04EF3370E03014F6F000197EC15F035
:103D90006CC04EF3370E03014F6F000197EC15F026
:103DA000140EF66E190EF76E050E03014E6F00012C
:103DB00083EC15F02CEF20F01A0EF66E190EF76E4C
:103DC000110E03014E6F000183EC15F06FC04EF32E
:103DD000370E03014F6F000197EC15F06EC04EF3E4
:103DE000370E03014F6F000197EC15F02E0EF66EA3
:103DF000190EF76E050E03014E6F000183EC15F0EE
:103E000039EF20F046EF20F0F60EF66E160EF76E44
:103E1000140E03014E6F000183EC15F010C34DF337
:103E2000010E03014E6F000118EC16F03A0E03016B
:103E3000556F00010FEC15F00FC34DF3010E030198
:103E40004E6F000118EC16F03A0E0301556F000199
:103E50000FEC15F00EC34DF3010E03014E6F000180
:103E600018EC16F00A0E0301556F00010FEC15F067
:103E70000D0E0301556F00010FEC15F05BEF20F004
:103E8000EACF54F3E9CF53F303014D39F0094F6FF3
:103E90004F27E20F506F320F526F4D510F0B5027CB
:103EA00050275227E90F516F512751274C390F0BDB
:103EB0005127522751375237521F52374C510F0B4F
:103EC00052274F37070E4E6F0A0E51075227FDE358
:103ED00050075127FDE34F075027FDE34E074F27BB
:103EE000FDE3030EEA6E4E0EE96E070E5315539D69
:103EF000E926000EEA22E950520804E1EA500308DC
:103F000001E1538DEF50006E08E153BD06D053B967
:103F100016D053B702D0200E03D053875399300EDA
:103F20000026EACF4DF3E9CF4CF300C055F3000172
:103F30000FEC15F04DC3EAFF4CC3E9FF0301EE504F
:103F400053ADD9D70001BDEF1FF0D00E03011425EA
:103F50004A6F070E4B6FD8B04B2B1C0EF66E170E28
:103F6000F76E140E4E6F000183EC15F0090EE96E2A
:103F70004BC34DF34AC34CF383D73A0E0301556F3D
:103F800000010FEC15F013C34DF3010E03014E6F4A
:103F9000000118EC16F03A0E0301556F00010FEC0A
:103FA00015F012C34DF3010E03014E6F000118EC22
:103FB00016F00A0E0301556F00010FEC15F00D0EFF
:103FC0000301556F00010FEC15F068EF20F0EF5280
:103FD00010E0EACF4BF3E9CF4AF3EFCF55F30FEC04
:103FE00015F04BC3EAFF4AC3E9FFE92AD8B4EA2A2D
:103FF000EED7C7EF20F042EC15F0EAD50301416B94
:10400000000178DE012C05D0FAEC16F05CEC1AF019
:10401000CDD0010E0301416F00016CDE012C07D0F1
:10402000C0EC15F042EC15F05CEC1AF0BFD0020EBB
:104030000301416F00015EDE012C06D095D642ECF3
:1040400015F05CEC1AF0B2D0120E0301416F0001C2
:1040500051DE012C06D08AD642EC15F05CEC1AF049
:10406000A5D0130E0301416F000144DE012C06D0E0
:10407000A3D642EC15F05CEC1AF098D0050E0301C3
:10408000416F000137DE012C04D0BCD65CEC1AF085
:104090008DD00A0E0301416F00012CDE012C03D0EC
:1040A0005CEC1AF083D00E0E0301416F000122DE9A
:1040B000012C06D0A9D642EC15F05CEC1AF076D0B3
:1040C0000F0E0301416F000115DE012C06D03DD714
:1040D00042EC15F05CEC1AF069D0030E0301416F5D
:1040E000000108DE012C11D04FEC18F0640E030122
:1040F0004F6F000100EC16F0340EF66E190EF76EDD
:104100004DEC15F05CEC1AF051D0040E0301416F38
:104110000001F0DD012C11D097EC0EF0640E0301CC
:104120004F6F000100EC16F0420EF66E190EF76E9E
:104130004DEC15F05CEC1AF039D0140E0301416F10
:104140000001D8DD012C13D04FEC18F0640E0301F0
:104150004F6F000100EC16F097EC0EF0520EF66E69
:10416000190EF76E4DEC15F05CEC1AF01FD0040040
:10417000620EF66E190EF76E0E0E03014E6F000101
:1041800083EC15F0020EEA6ED50EE96E20D7720EA2
:10419000F66E190EF76E030E03014E6F000183ECED
:1041A00015F0040042EC15F05CEC1AF00EEF2FF065
:1041B000F86AF1949F909F92A292F1909F9A9F9893
:1041C0009F86D08E078EFE0E006E060E016E020ECA
:1041D000E96E000EEA6EEE6A002EFDD7012EFBD7C7
:1041E000700ED36E9B8C9B9E2F6AB886A00EAF6E0E
:1041F000010EB06EA60EAC6E900EAB6E94869488D7
:10420000D00EC86E360EC66EC580CB68060ECA6E5E
:104210009494B76AB66A010EB96E800EBE6E0C0E2B
:10422000BD6E0301076B066B030E206F000E7E6EE2
:10423000C198C19A7F50E00B7F6E799A79987A6A1B
:104240007B6A030E386E880E376E020E896F740E0D
:10425000886F8B6B8A6B0001316A326AC00E7C6E8C
:10426000F19E196AF2BE198EF29E040E03017E6F52
:1042700000016BEC06F019BEF28E196AF2BE198EBF
:10428000F29E020E03017E6F00016BEC06F019BE78
:10429000F28E196AF2BE198EF29E030E03017E6F32
:1042A000000146EC06F019BEF28E1F0E926E899C3C
:1042B000926E899A926E899ED0500F0BD0A8000EF4
:1042C000D080D082D088D886D88802010F6FF90EAE
:1042D000776E000197EC0EF00400196AF2BE198E99
:1042E000F29E050E03017E6F00016BEC06F019BE15
:1042F000F28E196AF2BE198EF29E060E03017E6FCF
:1043000000016BEC06F019BEF28E196AF2BE198E2E
:10431000F29E03017E6B00016BEC06F019BEF28E7B
:10432000196AF2BE198EF29E010E03017E6F000122
:104330006BEC06F019BEF28E196AF2BE198EF29E6F
:10434000070E03017E6F00016BEC06F019BEF28EC2
:10435000850ED56E8F0ECD6E000E0609CA6E640EE8
:10436000CB6EB50EB16E0F0E7E6EC198C19A7F50A6
:10437000E00B0A097F6EC050C00B3409C06EC08EBE
:10438000C2800400330E03014D6F4C6F530E4B6F10
:10439000800E4A6F00012AEC13F002C0A3F001C0A6
:1043A000A2F09A0E03014D6F990E4C6F590E4B6F90
:1043B000800E4A6F00012AEC13F002C0A5F001C084
:1043C000A4F003014D6B4C6B600E4B6F800E4A6F77
:1043D00000012AEC13F002C0A7F001C0A6F0CD0E38
:1043E00003014D6FCC0E4C6F6C0E4B6F800E4A6FFD
:1043F00000012AEC13F002C0A9F001C0A8F00301EB
:104400004D6B4C6B4B6B810E4A6F00012AEC13F025
:1044100002C0ABF001C0AAF0330E03014D6F4C6F28
:10442000030E4B6F810E4A6F00012AEC13F002C09D
:10443000ADF001C0ACF003014D6B4C6B180E4B6F2F
:10444000810E4A6F000199EC13F002C0AFF001C079
:10445000AEF0660E03014D6F4C6F160E4B6F810E62
:104460004A6F000199EC13F002C0B1F001C0B0F046
:10447000330E03014D6F4C6F130E4B6F810E4A6F5D
:10448000000199EC13F002C0B3F001C0B2F09A0E33
:1044900003014D6F990E4C6F110E4B6F810E4A6FD9
:1044A000000199EC13F002C0B5F001C0B4F00301B3
:1044B0004D6B4C6B600E4B6F800E4A6F000199EC98
:1044C00013F002C0B7F001C0B6F0010E0301576F40
:1044D000566B780E556F850E546F00011DEC13F06E
:1044E00003C06BF302C06AF301C069F300C068F354
:1044F00002EC10F002C0B9F001C0B8F0850E030163
:10450000576F0B0E566F020E556F860E546F0001DB
:104510001DEC13F003C06BF302C06AF301C069F332
:1045200000C068F302EC10F002C0BBF001C0BAF0AA
:10453000CD0E0301576FAC0E566F180E556F870ED8
:10454000546F00011DEC13F003C06BF302C06AF35B
:1045500001C069F300C068F302EC10F002C0BDF0C6
:1045600001C0BCF0670E0301576FE60E566F360EA2
:10457000556F870E546F00011DEC13F003C06BF3F1
:1045800002C06AF301C069F300C068F302EC10F0E6
:1045900002C0BFF001C0BEF00301576B200E566F82
:1045A000550E556F870E546F00011DEC13F003C0BC
:1045B0006BF302C06AF301C069F300C068F302EC58
:1045C00010F002C0C1F001C0C0F0CC0E0301576F63
:1045D0003C0E566F640E556F870E546F00011DEC34
:1045E00013F003C06BF302C06AF301C069F300C0AB
:1045F00068F302EC10F002C0C3F001C0C2F0340E48
:104600000301576F3B0E566F010E556F880E546FA6
:1046100000011DEC13F003C06BF302C06AF301C08C
:1046200069F300C068F302EC10F002C0C5F001C0ED
:10463000C4F0690E9C6FA20E9B6F090E9A6F7E0EDE
:10464000996F690EA06FA20E9F6F090E9E6F7E0E6E
:104650009D6F050E0201076F066B0001A19F826925
:1046600002010C93010E0101EC6FECC167F0FB0E2F
:10467000D76E1D0ED66EF28A9D809D82B368370E6E
:10468000B26EA0829D889D8A9D86F2867D8AC00E2C
:10469000F21203014D6B4C6B090E4B6F600E4A6FAB
:1046A000516BF40E506F240E4F6F4E6B000151EFA3
:1046B00014F0010E03014B6FF40E4A6F0001D1EFAD
:1046C00014F01F0E926E898E926E899CA191938C2C
:1046D00081BC02D07CEC17F01F0E926E80B872EF96
:1046E00027F01F0E926E898E926E898C320E030116
:1046F0004F6F000100EC16F0F29A196AF2BE198EA3
:10470000F29E050E03017E6F00016BEC06F019BEF0
:10471000F28E196AF2BE198EF29E060E03017E6FAA
:10472000000146EC06F019BEF28E020E03014A6F3C
:10473000FA0E4F6F000100EC16F003014A2FF8D774
:104740000400446B445105084DE3410E556F0001D0
:104750000FEC15F0196AF2BE198EF29E050E0301D8
:104760007E6F000146EC06F019BEF28E020E0301C8
:104770004A6FFA0E4F6F000100EC16F003014A2F4A
:10478000F8D7040000011DEC18F001C045F3030147
:10479000455141080EE0196AF2BE198EF29E060ECE
:1047A0007E6F00016BEC06F019BEF28EFFD703019D
:1047B00019D0196AF2BE198EF29E050E7E6F0001A5
:1047C0006BEC06F019BEF28E020E03014A6FFA0E70
:1047D0004F6F000100EC16F003014A2FF8D70400D8
:1047E000442BB0D7196AF2BE198EF29E050E7E6F69
:1047F000000146EC06F019BEF28E020E03014A6F6C
:10480000FA0E4F6F000100EC16F003014A2FF8D7A3
:104810000400196AF2BE198EF29E070E7E6F000127
:104820006BEC06F019BEF28E52EC18F0020E03018A
:104830004A6F960E4F6F000100EC16F003014A2FED
:10484000F8D70400000152EC18F0020E03014A6F81
:10485000960E4F6F000100EC16F003014A2FF8D7B7
:104860000400000152EC18F0020E03014A6F960E8C
:104870004F6F000100EC16F003014A2FF8D7040037
:10488000196AF2BE198EF29E070E7E6F000146EC89
:1048900006F019BEF28E020E03014A6F960E4F6F9C
:1048A000000100EC16F003014A2FF8D70400010EB6
:1048B0000001896F886F196AF2BE198EF29E050E8B
:1048C00003017E6F00016BEC06F019BEF28E196ACF
:1048D000F2BE198EF29E060E03017E6F00016BEC94
:1048E00006F019BEF28E020E03014A6FFA0E4F6FE8
:1048F000000100EC16F003014A2FF8D70400020E65
:104900004A6FFA0E4F6F000100EC16F003014A2FB8
:10491000F8D704000001886B196AF2BE198EF29E66
:10492000050E03017E6F000146EC06F019BEF28E03
:10493000196AF2BE198EF29E060E03017E6F000107
:1049400046EC06F019BEF28E020E03014A6FFA0E13
:104950004F6F000100EC16F003014A2FF8D7040056
:10496000020E4A6FFA0E4F6F000100EC16F00301C1
:104970004A2FF8D70400010E0001886F196AF2BEB1
:10498000198EF29E050E03017E6F00016BEC06F09E
:1049900019BEF28E196AF2BE198EF29E060E03013E
:1049A0007E6F00016BEC06F019BEF28E020E030161
:1049B0004A6FFA0E4F6F000100EC16F003014A2F08
:1049C000F8D70400020E4A6FFA0E4F6F000100EC98
:1049D00016F003014A2FF8D704000001886B196A0A
:1049E000F2BE198EF29E050E03017E6F000146ECA9
:1049F00006F019BEF28E196AF2BE198EF29E060EEC
:104A000003017E6F000146EC06F019BEF28E020E25
:104A100003014A6FFA0E4F6F000100EC16F003011C
:104A20004A2FF8D70400020E4A6FFA0E4F6F0001AA
:104A300000EC16F003014A2FF8D70400010E000124
:104A4000886F196AF2BE198EF29E050E03017E6F01
:104A500000016BEC06F019BEF28E196AF2BE198ED7
:104A6000F29E060E03017E6F00016BEC06F019BE8C
:104A7000F28E020E03014A6FFA0E4F6F000100EC36
:104A800016F003014A2FF8D70400020E4A6FFA0EFF
:104A90004F6F000100EC16F003014A2FF8D7040015
:104AA0000001886B196AF2BE198EF29E050E030191
:104AB0007E6F000146EC06F019BEF28E196AF2BE56
:104AC000198EF29E060E03017E6F000146EC06F081
:104AD00019BEF28E020E03014A6FFA0E4F6F0001EB
:104AE00000EC16F003014A2FF8D70400020E4A6FBB
:104AF000FA0E4F6F000100EC16F003014A2FF8D7B1
:104B00000400010E0001886F196AF2BE198EF29E30
:104B1000050E03017E6F00016BEC06F019BEF28EEC
:104B2000196AF2BE198EF29E060E03017E6F000115
:104B30006BEC06F019BEF28E020E03014A6FFA0EFC
:104B40004F6F000100EC16F003014A2FF8D7040064
:104B5000020E4A6FFA0E4F6F000100EC16F00301CF
:104B60004A2FF8D704000001886B196AF2BE198E2B
:104B7000F29E050E03017E6F000146EC06F019BEA1
:104B8000F28E196AF2BE198EF29E060E03017E6F36
:104B9000000146EC06F019BEF28E020E03014A6FC8
:104BA000FA0E4F6F000100EC16F003014A2FF8D700
:104BB0000400020E4A6FFA0E4F6F000100EC16F06F
:104BC00003014A2FF8D70400446B4451050867E3FA
:104BD0007D9A0400196AF2BE198EF29E050E7E6F50
:104BE00000016BEC06F019BEF28E196AF2BE198E46
:104BF000F29E020E03017E6F000146EC06F019BE24
:104C0000F28E020E03014A6FFA0E4F6F000100ECA4
:104C100016F003014A2FF8D70400938A81AA1AD00C
:104C2000196AF2BE198EF29E050E7E6F000146ECE7
:104C300006F019BEF28E196AF2BE198EF29E060EA9
:104C400003017E6F00016BEC06F019BEF28EFFD7F8
:104C5000030125D0196AF2BE198EF29E050E7E6FF1
:104C6000000146EC06F019BEF28E196AF2BE198EEA
:104C7000F29E020E03017E6F00016BEC06F019BE7E
:104C8000F28E020E03014A6FFA0E4F6F000100EC24
:104C900016F003014A2FF8D70400442B96D7196A5F
:104CA000F2BE198EF29E050E7E6F000146EC06F0F4
:104CB00019BEF28E196AF2BE198EF29E020E03011F
:104CC0007E6F00016BEC06F019BEF28E020E03013E
:104CD0004A6FFA0E4F6F000100EC16F003014A2FE5
:104CE000F8D70400F2867D8A196AF2BE198EF29E08
:104CF000050E7E6F00016BEC06F019BEF28E196A8C
:104D0000F2BE198EF29E03017E6B000146EC06F0A6
:104D100019BEF28E196AF2BE198EF29E060E0301BA
:104D20007E6F000146EC06F019BEF28E196AF2BEE3
:104D3000198EF29E070E03017E6F00016BEC06F0E8
:104D400019BEF28E52EC18F00400020E03014A6FF5
:104D5000FA0E4F6F000100EC16F003014A2FF8D74E
:104D600004000400320E4F6F000100EC16F052EC0C
:104D700018F0BBEC18F002010051010823E2FF0A11
:104D800008E10101FF515708D8A002D002011AD052
:104D900002010051020816E308E10101FF518A08EF
:104DA000D8B002D002010ED00201196AF2BE198EEB
:104DB000F29E03017E6B00016BEC06F019BEF28ED1
:104DC0000DD00201196AF2BE198EF29E060E030181
:104DD0007E6F00016BEC06F019BEF28E0400020E2D
:104DE00003014A6FFA0E4F6F000100EC16F0030149
:104DF0004A2FF8D7196AF2BE198EF29E7E6B000117
:104E000046EC06F019BEF28E196AF2BE198EF29EB9
:104E1000060E03017E6F000146EC06F019BEF28E0D
:104E20005DEC19F002010251010819E2FF0A03E1E9
:104E30000151570814E20251020811E303E1015144
:104E40008A080DE3196AF2BE198EF29E03017E6B89
:104E500000016BEC06F019BEF28E0DD00201196A4A
:104E6000F2BE198EF29E060E03017E6F00016BECFE
:104E700006F019BEF28E0400020E03014A6FFA0E0C
:104E80004F6F000100EC16F003014A2FF8D7196AA2
:104E9000F2BE198EF29E7E6B000146EC06F019BE42
:104EA000F28E196AF2BE198EF29E060E03017E6F13
:104EB000000146EC06F019BEF28E030152D7F28AC9
:104EC000FA0E4F6F000100EC16F08E0EF66E190E02
:104ED000F76E4DEC15F0FA0E03014F6F000100EC78
:104EE00016F0FF00640E03014F6F000100EC16F096
:104EF00004000FC24AF3FFEF19F0C0EC15F05CECB0
:104F00001AF0640E03014F6F000100EC16F0010E61
:104F1000896F886F080E0201106F10C244F30C9560
:104F20001053D8B4ECD00CA505D0000152EC18F009
:104F300002010C951051010A000112E0030A29E058
:104F4000010A40E0070A57E0010A6EE0030AD8B4FC
:104F500084D0010AD8B49AD00F0AD8B4B0D0C8D03F
:104F6000196AF2BE198EF29E050E03017E6F0001D2
:104F70006BEC06F019BEF28E196AF2BE198EF29E23
:104F8000060E03017E6F000146EC06F019BEF28E9C
:104F9000AFD0196AF2BE198EF29E050E03017E6F24
:104FA000000146EC06F019BEF28E196AF2BE198EA7
:104FB000F29E060E03017E6F00016BEC06F019BE37
:104FC000F28E96D0196AF2BE198EF29E050E03017A
:104FD0007E6F00016BEC06F019BEF28E196AF2BE0C
:104FE000198EF29E060E03017E6F000146EC06F05C
:104FF00019BEF28E7DD0196AF2BE198EF29E050E90
:1050000003017E6F000146EC06F019BEF28E196AAC
:10501000F2BE198EF29E060E03017E6F00016BEC4C
:1050200006F019BEF28E64D0196AF2BE198EF29E95
:10503000050E03017E6F00016BEC06F019BEF28EC7
:10504000196AF2BE198EF29E060E03017E6F0001F0
:1050500046EC06F019BEF28E4BD0196AF2BE198EDC
:10506000F29E050E03017E6F000146EC06F019BEAC
:10507000F28E196AF2BE198EF29E060E03017E6F41
:1050800000016BEC06F019BEF28E32D0196AF2BE46
:10509000198EF29E050E03017E6F00016BEC06F087
:1050A00019BEF28E196AF2BE198EF29E060E030127
:1050B0007E6F000146EC06F019BEF28E19D0196A17
:1050C000F2BE198EF29E050E03017E6F000146ECC2
:1050D00006F019BEF28E196AF2BE198EF29E060E05
:1050E00003017E6F00016BEC06F019BEF28E00D05A
:1050F0000400A3EC1CF003EF1DF0020111D7000126
:10510000886B1F0E926E898E926E899CA19110EF12
:105110001DF0443C01D002D044C01EF364EC16F0F4
:105120003E5206E03E3C01D003D03EC083F006D0A4
:105130003E5204E13E3C02D0050E836F3C5206E035
:105140003C3C01D003D03CC084F006D03C5204E18A
:105150003C3C02D0050E846F463C01D003D046C0D3
:1051600089F004D0463C02D0020E896F453C01D044
:1051700003D045C088F004D0453C02D0020E886FB1
:1051800081693FEC08F0ECC1EDF1ECC167F0020E73
:10519000876F400E0201036F0001916BA60EF66E41
:1051A000190EF76E4DEC15F00400A3EC1CF035EF72
:1051B0001DF0BFC047F3BEC046F3050EBE5D030140
:1051C000486F000E0001BF590301496F47510101AB
:1051D000FA5D1FE308E1F9510301465DD8A002D052
:1051E000010117D00101EC2D14D00001A1B902D0AA
:1051F00001010FD0196AF2BE198EF29E070E03014B
:105200007E6F00016BEC06F019BEF28E010E886F06
:105210000101FA510301495D21E307E14851010110
:10522000F95DD8A002D0030119D00101EC2D01D005
:1052300002D0030113D00001A1B902D003010ED0A6
:10524000196AF2BE198EF29E070E03017E6F0001ED
:1052500046EC06F019BEF28E886B0301000143ECA8
:105260001DF08153D8A48BD0190E03014F6F00019C
:1052700000EC16F004008169C20EF66E190EF76E8E
:105280004DEC15F0196AF2BE198EF29E020E030162
:105290007E6F000146EC06F019BEF28E3C0E020154
:1052A0000A6F0A531BE00400190E03014F6F00013F
:1052B00000EC16F0010E03014A6F020E4B6F000165
:1052C00063EC1DF0A1B908D002010A512C08D8B036
:1052D00002D0000101D002D00201E3D7196AF2BE68
:1052E000198EF29E020E03017E6F00016BEC06F038
:1052F00019BEF28E0400040EF66E1A0EF76E4DEC17
:1053000015F002010A6B056B046B196AF2BE198E67
:10531000F29E040E03017E6F00016BEC06F019BED5
:10532000F28E196AF2BE198EF29E040E03017E6F90
:10533000000146EC06F019BEF28E320E03014F6FEB
:10534000000100EC16F0196AF2BE198EF29E040EEE
:1053500003017E6F00016BEC06F019BEF28E320E77
:1053600003014F6F000100EC16F00101DF6BDE6BF3
:10537000E16BE06BE36BE26B556B546B00011F0E4E
:10538000926E80B845D1A1A943D102010E53D8B481
:1053900002D000013DD1190E03014F6F000100EC56
:1053A00016F004001F0E926E80B802D0A1B903D08F
:1053B00014EF2FF013D01F0E926E80B80FD0A1A95A
:1053C0000DD0010E706F4FEC18F0640E03014F6F9B
:1053D000000100EC16F0040097EC0EF03A0EF66EA9
:1053E0001A0EF76E4DEC15F0196AF2BE198EF29E88
:1053F000020E03017E6F000146EC06F019BEF28E2C
:105400003C0E02010A6F0A531BE00400190E03014F
:105410004F6F000100EC16F0010E03014A6F020EFF
:105420004B6F000163EC1DF0A1B908D002010A51D5
:105430002C08D8B002D0000101D002D00201E3D77D
:10544000196AF2BE198EF29E020E03017E6F0001F0
:105450006BEC06F019BEF28E1F0E926E899E926E54
:10546000899C02010C830400720EF66E1A0EF76E10
:1054700000014DEC15F002010A6B056B046B83C053
:105480000DF20D5302E00400FCD7AA0EF66E1A0EC0
:10549000F76E00014DEC15F0640E03014F6F000133
:1054A00000EC16F0F29A9D92A0929D989D9A9D967E
:1054B0000101EC51020806E000013FEC08F043EC6A
:1054C0001DF0010102010C831F0E926E899E926EE7
:1054D000899C040083C00DF2926E899E926E899C15
:1054E0000D5359E0D3CF00F0D39E030000C0D3FF8B
:1054F00004000001A1A901D050D01F0E926E80B807
:1055000048D01F0E926E898E926E898C9D820A0EF3
:1055100003014F6F000100EC16F04FEC18F0640E21
:1055200003014F6F000100EC16F0040097EC0EF041
:10553000196AF2BE198EF29E040E03017E6F0001FD
:105540006BEC06F019BEF28E196AF2BE198EF29E4D
:10555000040E03017E6F000146EC06F019BEF28EC8
:10556000320E03014F6F000100EC16F0196AF2BE13
:10557000198EF29E040E03017E6F00016BEC06F0A3
:1055800019BEF28E320E03014F6F000100EC16F0CF
:1055900004D00201A5D798D700010101DF6BDE6BB3
:1055A000E16BE06BE36BE26B556B546B02010C93A8
:1055B0001F0E926E898E926E898C030E0101F26F1E
:1055C000E80EF16F02010C91050E0E6FF28A9D82BA
:1055D000A0829D889D8A9D86F2867D8A0A0E03019F
:1055E0004F6F000100EC16F0CE0EF66E1A0EF76E3D
:1055F0004DEC15F0640E03014F6F000100EC16F046
:10560000196AF2BE198EF29E46EC08F019BEF28EAF
:10561000CB51A75DD8A0FDD004E1CA51A65DD8A0AA
:10562000F8D00101EC510208D8B402D00001F1D049
:105630000001A1A9EED00201055306E104510908B9
:10564000D8A002D00001E5D00E53D8B402D000019A
:10565000E0D0E80EF66E1A0EF76E00014DEC15F074
:10566000196AF2BE198EF29E020E03017E6F0001CE
:1056700046EC06F019BEF28E3C0E02010A6F0A5388
:105680001BE00400190E03014F6F000100EC16F03F
:10569000010E03014A6F020E4B6F000163EC1DF017
:1056A000A1B908D002010A512C08D8B002D00001DB
:1056B00001D002D00201E3D7196AF2BE198EF29E20
:1056C000020E03017E6F00016BEC06F019BEF28E34
:1056D0001F0E926E899E926E899C02010C830400BB
:1056E000180EF66E1B0EF76E00014DEC15F0020160
:1056F0000A6B056B046B83C00DF20D5302E00400CE
:10570000FCD7480EF66E1B0EF76E00014DEC15F03F
:10571000640E03014F6F000100EC16F0F29A9D92A7
:10572000A0929D989D9A9D960101EC51020806E079
:1057300000013FEC08F043EC1DF0010102010C8375
:105740001F0E926E899E926E899C040083C00DF29A
:10575000926E899E926E899C0D5359E0D3CF00F0D2
:10576000D39E030000C0D3FF04000001A1A901D013
:1057700014D71F0E926E80B848D01F0E926E898E7D
:10578000926E898C9D820A0E03014F6F000100EC1E
:1057900016F04FEC18F0640E03014F6F000100EC9F
:1057A00016F0040097EC0EF0196AF2BE198EF29E04
:1057B000040E03017E6F00016BEC06F019BEF28E41
:1057C000196AF2BE198EF29E040E03017E6F00016B
:1057D00046EC06F019BEF28E320E03014F6F000147
:1057E00000EC16F0196AF2BE198EF29E040E030147
:1057F0007E6F00016BEC06F019BEF28E320E0301D3
:105800004F6F000100EC16F0C8D60201A5D798D75B
:1058100000010101EC51020827E10001A1B902D009
:10582000010122D00201055306E104510908D8A064
:1058300002D0010119D00001823D03D0010114D032
:105840000001A1AF02D001010FD002010E53D8B464
:1058500002D0010109D00A0E0001825D02010B6F26
:105860000001A18F0DD00101EC2D09D00001A1B9DB
:1058700002D0010104D0A19F0201056B046B00015D
:1058800002010B53D8A4E6D00001A1BF02D002014F
:10589000E1D06C0EF66E1B0EF76E4DEC15F0196A2A
:1058A000F2BE198EF29E020E03017E6F000146ECDD
:1058B00006F019BEF28E3C0E02010A6F0A531BE07D
:1058C0000400190E03014F6F000100EC16F0010EE9
:1058D00003014A6F020E4B6F000163EC1DF0A1B98A
:1058E00008D002010A512C08D8B002D0000101D022
:1058F00002D00201E3D7196AF2BE198EF29E020E9F
:1059000003017E6F00016BEC06F019BEF28E1F0ED4
:10591000926E899E926E899C02010C830400960E01
:10592000F66E1B0EF76E00014DEC15F002010A6BCE
:10593000056B046B0001A19F83C00DF202010D53A2
:1059400002E00400FCD7C40EF66E1B0EF76E0001D9
:105950004DEC15F0640E03014F6F000100EC16F0E2
:10596000F29A9D92A0929D989D9A9D960101EC516C
:10597000020806E000013FEC08F043EC1DF00101D5
:1059800002010C831F0E926E899E926E899C040008
:1059900083C00DF2926E899E926E899C0D5359E0E0
:1059A000D3CF00F0D39E030000C0D3FF040000015A
:1059B000A1A901D0F2D51F0E926E80B848D01F0E5B
:1059C000926E898E926E898C9D820A0E03014F6FB2
:1059D000000100EC16F04FEC18F0640E03014F6F5D
:1059E000000100EC16F0040097EC0EF0196AF2BE0C
:1059F000198EF29E040E03017E6F00016BEC06F01F
:105A000019BEF28E196AF2BE198EF29E040E0301BF
:105A10007E6F000146EC06F019BEF28E320E0301D5
:105A20004F6F000100EC16F0196AF2BE198EF29E5B
:105A3000040E03017E6F00016BEC06F019BEF28EBE
:105A4000320E03014F6F000100EC16F0A6D50201E3
:105A5000A5D798D70101EC51040836E0ED51EC5D73
:105A600033E0ECC1EDF1ECC167F0ED2D15D0030E84
:105A700003014A6F4B6B000163EC1DF08751020874
:105A80000AE14FEC18F0640E03014F6F000100ECC7
:105A900016F097EC0EF00101ED51020815E1030E2E
:105AA00003014A6F4B6B000163EC1DF08751020844
:105AB0000AE14FEC18F0FA0E03014F6F000100EC01
:105AC00016F097EC0EF00101EC51020808E100011C
:105AD000A1B902D0010103D097EF1DF00101EC2D17
:105AE0000FD00001A1B902D001010AD0010E0301BB
:105AF0004A6F050E4B6F000163EC1DF011D00101E0
:105B0000EC5102080EE10001A1B902D0010109D057
:105B1000010E03014A6F140E4B6F000163EC1DF080
:105B200001010001BBEC18F05DEC19F0852D0DD0E2
:105B3000196AF2BE198EF29E050E03017E6F0001F6
:105B40006BEC06F019BEF28E0CD0196AF2BE198EFB
:105B5000F29E050E03017E6F000146EC06F019BEB1
:105B6000F28E862D0DD0196AF2BE198EF29E060EA7
:105B700003017E6F00016BEC06F019BEF28E0CD0B3
:105B8000196AF2BE198EF29E060E03017E6F0001A5
:105B900046EC06F019BEF28E938E81BE11D0938E24
:105BA00081AE02D041D10CD0010E706F4FEC18F0D5
:105BB000320E03014F6F000100EC16F097EC0EF06F
:105BC000938C81BC11D0938C81AC02D02DD10CD0A0
:105BD000010E716F4FEC18F0320E03014F6F000190
:105BE00000EC16F097EC0EF0872D03D04FEC18F078
:105BF00002D097EC0EF083513E5C25E0835321E008
:105C000083C03EF0F40EF66E1B0EF76E050E030118
:105C10004E6F000183EC15F03EC04DF31B0E0301E7
:105C20004E6F000118EC16F0FB0EF66E1B0EF76EB1
:105C30002A0E03014E6F000183EC15F0C5EC16F03F
:105C400002D03EC083F08951465C21E089C046F015
:105C5000260EF66E1C0EF76E0C0E03014E6F000141
:105C600083EC15F089C04DF31B0E03014E6F00014C
:105C700018EC16F0340EF66E1C0EF76E2A0E0301A9
:105C80004E6F000183EC15F0C5EC16F002D046C053
:105C900089F003011E51445C20E01EC344F0600EF5
:105CA000F66E1C0EF76E0D0E4E6F000183EC15F0B4
:105CB00044C04DF31B0E03014E6F000118EC16F0AB
:105CC0006F0EF66E1C0EF76E2A0E03014E6F00016A
:105CD00083EC15F0C5EC16F0030100017951DD0AE3
:105CE00005E0330A1DE0110A32E04ED00101EC2D2F
:105CF00016D00001A1B902D0010111D09A0EF66EA2
:105D00001C0EF76E4DEC15F0FA0E03014F6F0001FB
:105D100000EC16F07CEC17F00C0E796F010137D017
:105D20000101EC2D13D00001A1B902D001010ED068
:105D3000C00EF66E1C0EF76E4DEC15F0FA0E030158
:105D40004F6F000100EC16F0FF00010120D00101AF
:105D5000EC2D18D00001A1B902D0010113D0DE0E44
:105D6000F66E1C0EF76E4DEC15F0FA0E03014F6F38
:105D7000000100EC16F0F29CF29EF2BEFDD76CEF33
:105D800003F0010104D000010C0E796F0101030141
:105D9000165102080BE1166B000EF66E1D0EF76E23
:105DA00000014DEC15F042EC15F003010201D45155
:105DB000D35D3BE0040000011DEC18F001C045F389
:105DC00003014551400804E102010C870301056B02
:105DD00002010CA72AD0030145510D0812E0036A05
:105DE0000551D50FE96E020E0320EA6E4551600899
:105DF00006E245517A0803E34551DF0B01D04551D6
:105E0000EF6E05512E0803E345510D080BE1020129
:105E10000C970301056B0001FBEF1FF0040004D099
:105E200003D00301052B0001020100000001D4EFA3
:045E300028F0030053
:020000040030CA
:0E00000000C81815008D81000F400F800F40C2
:00000001FF
;PIC18F25K20
;CRC=7121  CREATED="07-÷Â‚-15 13:22"
